:020000040800F2
:10000000D027002045010008792900087B29000835
:100010007F290008832900088729000800000000C4
:100020000000000000000000000000008B29000814
:100030008D290008000000008F2900089129000880
:100040005F0100085F0100085F0100085F01000810
:100050005F0100085F0100085F0100085F01000800
:100060005F0100085F0100085F0100085F010008F0
:100070005F0100085F0100085F0100085F010008E0
:100080005F0100085F0100085F0100085F010008D0
:100090005F0100085F0100085F0100085F010008C0
:1000A0005F0100085F0100085F0100085F010008B0
:1000B0005F0100085F0100085F0100085F010008A0
:1000C0005F0100085F0100085F0100085F01000890
:1000D0005F0100085F0100085F0100085F01000880
:1000E0005F0100085F0100085F0100085F01000870
:1000F0005F0100085F0100085F0100085F01000860
:100100005F0100085F0100085F0100085F0100084F
:100110005F0100085F010008932900085F010008E3
:100120005F0100085F0100085F0100085F0100082F
:10013000DFF80CD005F010F8004800470927000848
:10014000D02700200648804706480047FEE7FEE724
:10015000FEE7FEE7FEE7FEE7FEE7FEE7FEE7FEE777
:1001600047020008310100080CB500200190009002
:100170006C48006840F480306A49086000BF6948F4
:10018000006800F4003000900198401C0190009835
:1001900018B90198B0F5A06FF1D16248006800F479
:1001A000003010B10120009001E000200090009884
:1001B000012843D15C48006840F010005A490860AB
:1001C0000846006820F0030008600846006840F018
:1001D0000200086053484068524948600846406839
:1001E00048600846406840F48060486008464068BF
:1001F00020F47C1048600846406840F4E8104860ED
:100200000846006840F08070086000BF45480068FC
:1002100000F000700028F9D04248406820F0030048
:10022000404948600846406840F00200486000BF0E
:100230003C48406800F00C000828F9D10CBD10B50E
:10024000FFF792FF10BD10B53648006840F001007E
:1002500034490860084640683449084031494860DC
:1002600008460068324908402E4908600846006880
:1002700020F4802008600846406820F4FE004860B2
:100280004FF41F008860FFF7DAFF4FF00060294944
:10029000086010BD10B5002100200022214B5B68D2
:1002A00003F00C0121B1042906D0082928D107E068
:1002B000214B224C236027E01F4B204C236023E07E
:1002C000184B5B6803F47010164B5B6803F48032C4
:1002D000022303EB904022B9194B4343174C236090
:1002E0000DE0104B5B6803F4003323B1144B434320
:1002F000124C236003E0104B4343104C236003E097
:100300000D4B0E4C236000BF00BF064B5B68C3F370
:1003100003130C4CE15C094B1B68CB40074C23607A
:1003200010BD000000100240002002400000FFF855
:10033000FFFFF6FE08ED00E000127A00000000204A
:1003400000093D000400002031490143314A116099
:10035000704770B5002100230F22C47804B32D4CE0
:10036000246804F4E064C4F5E064210AC1F10403E4
:10037000CA40447804FA03F1847814402143090107
:10038000254C0678A155047804F01F050124AC40E3
:1003900005786D11AD0005F1E025C5F8004109E0D3
:1003A000047804F01F050124AC401C4D067876113A
:1003B00045F8264070BD1A4A0A400243154B1B1FE0
:1003C0001A60704739B1134A121D12680243114B6B
:1003D0001B1D1A6006E00F4A121D126882430D4B66
:1003E0001B1D1A607047042808D14FF0E0210969ED
:1003F00041F004014FF0E022116107E04FF0E021ED
:10040000096921F004014FF0E022116170470000FA
:100410000000FA050CED00E000E400E080E100E0FF
:1004200080FFFF1F10B50446FA48844208D101211D
:10043000401500F07FFE0021601500F07BFE17E004
:10044000F548844208D10121001500F073FE002117
:10045000201500F06FFE0BE0F048844208D1012126
:10046000C80300F067FE00214FF4004000F062FE78
:1004700010BD30B50246002000235068E84C2040F3
:100480000D790C6844EA0524204350609068E54CDF
:100490002040D1E902542C434D7944EA45042043DD
:1004A0009060D06A20F470000C7C641EE4B2234398
:1004B00040EA0350D06230BD0021016001714171FA
:1004C0008160C16001210174704721B1826842F0EE
:1004D0000102826003E0826822F0010282607047BC
:1004E00021B1826842F48072826003E0826822F463
:1004F00080728260704710B50023CBB21AB1446895
:100500001C43446002E044689C43446010BD816821
:1005100041F0080181607047014600208A6802F0BE
:1005200008020AB1012000E000207047816841F014
:10053000040181607047014600208A6802F00402CD
:100540000AB1012000E00020704721B1826842F426
:10055000A002826003E0826822F4A00282607047F9
:10056000014600208A6802F480020AB1012000E0FE
:100570000020704710B50A4600210023416821F48D
:100580006041531E41EA4331416010BD21B14268D0
:1005900042F40062426003E0426822F4006242607A
:1005A0007047F0B504460D4600200021092D11DDED
:1005B000E068A5F10A0606EB4607072606FA07F1EA
:1005C0008843A5F10A0606EB460603FA06F108433E
:1005D000E0600CE0206905EB4507072606FA07F105
:1005E000884305EB450603FA06F108432061072A14
:1005F0000FDA606B561E06EB86071F2606FA07F118
:100600008843561E06EB860605FA06F1084360632A
:1006100022E00D2A0FDA206BD61F06EB86071F2675
:1006200006FA07F18843D61F06EB860605FA06F19F
:100630000843206310E0E06AA2F10D0606EB86078E
:100640001F2606FA07F18843A2F10D0606EB86067F
:1006500005FA06F10843E062F0BD21B1826842F478
:100660008012826003E0826822F480128260704708
:100670000146C86C80B2704766484C3000687047CD
:1006800021B1426842F48062426003E0426822F491
:1006900080624260704721B1426842F480524260F9
:1006A00003E0426822F48052426070470A4600210B
:1006B000816821F4E04111438160704721B1826873
:1006C00042F40042826003E0826822F400428260C9
:1006D000704721B1826842F40212826003E08268AE
:1006E00022F4021282607047014600208A6802F4F8
:1006F00000120AB1012000E000207047F0B5044666
:100700001546002000220026092911DDE068A1F12C
:100710000A0707EB470C072707FA0CF29043A1F1F1
:100720000A0707EB470703FA07F21043E0600CE003
:10073000206901EB410C072707FA0CF2904301EB0B
:10074000410703FA07F210432061A06BC0F3015682
:10075000EF1C06F1010CA7EB0C0707EB870C1F271A
:1007600007FA0CF29043EF1C06F1010CA7EB0C0703
:1007700007EB870701FA07F21043A063F0BD10B53D
:100780000A4600210023816B21F44011531E41EAE7
:100790000351816310BD08B5002300930090009BB6
:1007A0000B440093009B1A6008BD08B50246002068
:1007B0000090009201F12800009B184400900098DE
:1007C000006880B208BD0A4600214168164B1940F6
:1007D0001143416070474162826270470A460021BE
:1007E000416821F01F0111434160704740B1094940
:1007F0000831096841F40001064A0832116007E037
:1008000004490831096821F40001024A08321160E4
:10081000704700000024014000280140003C0140D6
:10082000FFFEF0FFFDF7F1FFFFFD3FFF0246002056
:1008300013680B400BB1012000E000207047CA4351
:100840000260704770B502460020002300240B129E
:100850005568CEB205EA060415681D4015B10CB105
:10086000012000E0002070BD00220A12D343036083
:100870007047000001684FF6FE72114001600021D0
:10088000016041608160C1608D49884208D18C4916
:100890000839496841F00F01894A083A51608AE0F5
:1008A00087491431884208D185490839496841F09F
:1008B000F001834A083A51607DE08149283188423D
:1008C00008D17F490839496841F470617C4A083A87
:1008D000516070E07A493C31884208D17849083942
:1008E000496841F47041764A083A516063E07449BE
:1008F0005031884208D172490839496841F4702161
:100900006F4A083A516056E06D496431884208D117
:100910006B490839496841F47001694A083A5160E5
:1009200049E067497831884208D165490839496802
:1009300041F07061624A083A51603CE06149884286
:1009400006D1011F096841F00F01021F116032E05A
:100950005C491431884208D15A49091F096841F09D
:10096000F001584A121F116025E05649283188428B
:1009700008D15449091F096841F47061514A121F96
:10098000116018E04F493C31884208D14D49091F98
:10099000096841F470414B4A121F11600BE049494C
:1009A0005031884207D14749091F096841F4702135
:1009B000444A121F1160704710B50022026847F6C2
:1009C000F0739A430C6A8B6823430C6923434C6988
:1009D00023438C692343CC6923434C6A23438C6AA9
:1009E00023431A430260CB6843600B6883604B6803
:1009F000C36010BD0021016041608160C160016180
:100A000041618161C161016241628162704721B1CE
:100A1000026842F00102026004E002684FF6FE73D1
:100A20001A40026070471AB103680B43036002E08A
:100A300003688B4303607047416070470146486814
:100A400080B2704701460020002201F080531BB1A4
:100A50001C4B083B1A6802E0194B083B1A6802EA73
:100A600001030BB1012000E00020704700F080512D
:100A700019B11449091F086002E01149083948609A
:100A8000704701460020002201F080531BB10D4B3E
:100A9000083B1A6802E00A4B083B1A6802EA0103A5
:100AA0000BB1012000E00020704700F0805119B127
:100AB0000449091F086002E001490839486070478D
:100AC000080002400804024010B50446CC488442A5
:100AD00008D10121042000F02DFB0021042000F0AA
:100AE00029FB46E0C748844208D10121082000F0D4
:100AF00021FB0021082000F01DFB3AE0C24884429F
:100B000008D10121102000F015FB0021102000F079
:100B100011FB2EE0BD48844208D10121202000F0C5
:100B200009FB0021202000F005FB22E0B8488442A8
:100B300008D10121402000F0FDFA0021402000F002
:100B4000F9FA16E0B348844208D10121802000F070
:100B5000F1FA0021802000F0EDFA0AE0AE4884426C
:100B600007D10121801500F0E5FA0021A01500F061
:100B7000E1FA10BD10B50121084600F0DBFA0021B2
:100B8000012000F0D7FA10BD2DE9F0410246002502
:100B90000026002000230024002791F803C00CF059
:100BA0000F0591F803C00CF0100CBCF1000F03D03E
:100BB00091F802C04CEA050591F800C0BCF1000FA5
:100BC00031D0146800202BE04FF0010C0CFA00F338
:100BD000B1F800C00CEA03069E4220D183004FF01A
:100BE0000F0C0CFA03F7BC4305FA03FC4CEA0404AF
:100BF00091F803C0BCF1280F06D14FF0010C0CFA9C
:100C000000FCC2F814C00AE091F803C0BCF1480F20
:100C100005D14FF0010C0CFA00FCC2F810C0401CCA
:100C20000828D1D31460B1F800C0BCF1FF0F34DD47
:100C3000546800202EE000F1080C4FF0010808FA7B
:100C40000CF3B1F800C00CEA03069E4221D18300E8
:100C50004FF00F0C0CFA03F7BC4305FA03FC4CEA07
:100C6000040491F803C0BCF1280F05D100F1080C71
:100C700008FA0CF8C2F8148091F803C0BCF1480FD0
:100C800007D100F1080C4FF0010808FA0CF8C2F87F
:100C90001080401C0828CED35460BDE8F0814FF688
:100CA000FF710180022181700421C17070470246EA
:100CB000002093680B400BB1012000E0002070473A
:100CC0000146886880B2704702460020D3680B4016
:100CD0000BB1012000E0002070470146C86880B2D7
:100CE000704701617047416170470AB1016100E0DE
:100CF00041617047C16070474FF480320A4382619E
:100D00008161826182698269704702460020434B9B
:100D100018684FF68073184040EA021008433F4BB2
:100D2000186070473E49C8617047F0B50A46002315
:100D300000240021002500F00046B6F1004F02D14A
:100D4000364EF16901E0354E7168C0F3034583B258
:100D500000F44016B6F5401F08D121F070612F4E07
:100D6000766826F070662D4F7E6012E000F48016E3
:100D7000B6F5801F06D1032606FA05F4A14341F01B
:100D8000706106E0460D360103FA06F6B14341F004
:100D9000706122B1460D360103FA06F6314300F0C8
:100DA0000046B6F1004F02D11C4EF16101E01B4E2E
:100DB0007160F0BD30B500228B071C0F0F2303FAC2
:100DC00004F2164B08338C1053F824309343134C21
:100DD00008348D1044F8253023468C1053F8243005
:100DE0008C07240F00FA04F423430C4C08348D10B4
:100DF00044F8253030BD0A49DC31086070470000F6
:100E000000080140000C01400010014000140140A6
:100E100000180140001C014000200140000001407A
:100E200000002042DF48006840F00100DD49086012
:100E300008464068DC490840DA49486008460068CE
:100E4000DA490840D74908600846006820F4802045
:100E500008600846406820F4FE0048604FF41F0018
:100E600088607047CF49096821F48031CD4A11600C
:100E70001146096821F480211160B0F5803F03D04C
:100E8000B0F5802F0ED106E0C649096841F48031E3
:100E9000C44A116007E0C349096841F4A021C14A6E
:100EA000116000E000BF00BF704710B5014600228E
:100EB000002300204A11012A02D1BA4C236806E01F
:100EC000022A02D1B74C236A01E0B64C636A01F0F2
:100ED0001F02012494401C400CB1012000E00020BE
:100EE00010BD38B5002000900024002500BF31203F
:100EF000FFF7DBFF05460098401C00900098B0F516
:100F0000A06F01D0002DF2D03120FFF7CEFF08B145
:100F1000012400E00024204638BD01460020A14AFB
:100F2000106820F0F80040EAC10010607047A04946
:100F300008607047024600209A4B586820F47C10E5
:100F400042EA01031843974B586070479849086676
:100F5000704701460020934A506820F00300084380
:100F6000506070478F48406800F00C0070470146A1
:100F700000208C4A506820F0F00008435060704711
:100F800001460020874A506820F4E0600843506022
:100F9000704701460020834A506820F4605040EAC0
:100FA000C1005060704729B17E4A527A02437D4B9E
:100FB0005A7204E07B4A527A82437A4B5A727047E3
:100FC0007B49D8310860704701460020754A506857
:100FD00020F440400843506070470021714A20329D
:100FE0001170704A82F82010012802D004280AD11A
:100FF00004E001216B4A2032117005E00521694AA5
:101000002032117000E000BF00BF704769490860DE
:1010100070476449096A0143624A11627047654931
:1010200044390860704730B50021002200240023B5
:101030005C4D6D6805F00C0121B1042905D008292B
:1010400023D105E05C4D056022E05B4D05601FE0AB
:10105000544D6D6805F47012524D6D6805F480347E
:10106000022505EB92421CB9544D554305600BE037
:101070004C4D6D6805F400351DB1504D554305606C
:1010800002E04D4D5543056002E04B4D056000BF49
:1010900000BF444D6D6805F0F0010909484D6B5CD7
:1010A0000568DD4045603F4D6D6805F4E061090A63
:1010B000434D6B5C4568DD4085603A4D6D6805F4D5
:1010C0006051C90A3E4D6B5C4568DD40C560354DD9
:1010D0006D6805F44041890B3A4D6B5CC568B5FB02
:1010E000F3F5056130BD29B12E4A526902432D4BFB
:1010F0005A6104E02B4A526982432A4B5A61704775
:1011000029B1284A92690243264B9A6104E0254A94
:1011100092698243234B9A61704729B1214AD2696F
:101120000243204BDA6104E01E4AD26982431D4B20
:10113000DA61704729B11B4AD2680243194BDA6061
:1011400004E0184AD2688243164BDA60704729B12E
:10115000144A12690243134B1A6104E0114A1269DE
:101160008243104B1A61704712494039086070473A
:101170000F49C86470470B49C87170470948406AF5
:1011800040F0807007494862704701460020054AD8
:1011900092680A400AB1012000E00020704701492E
:1011A00088727047001002400000FFF8FFFFF6FE53
:1011B000000042428004424200127A0000093D00D1
:1011C000140000202400002010B50446BE488442CC
:1011D00008D101218014FFF7ADFF0021A014FFF713
:1011E000A9FF16E0B948844208D101210014FFF795
:1011F000AEFF00212014FFF7AAFF0AE0B4488442A2
:1012000007D10121C013FFF7A2FF0021E013FFF770
:101210009EFF10BD10B50022028802F441520B88D7
:101220004C8823438C882343CC8823430C89234355
:101230004C8923438C892343CC8923431A4302805E
:10124000838B4FF2FF74234083830B8A038210BD8C
:101250002DE9F04F85B005460C464FF000090227F6
:101260004FF000084FF0010B0026B246A88B4FF25A
:1012700040010840A88302202884B5F81C90A0688B
:10128000022801D100BF38E0A08810B94FF0010B4F
:1012900001E04FF0020B8D48854200D100E000BF15
:1012A0006846FFF7C0FEDDF800A0E088B0F5007FDB
:1012B0000AD14FEA1A2000EB80004000A168B0FB81
:1012C000F1F0401D86B20BE04FEA4B10BAFBF0F094
:1012D00000EB80004000A168B0FBF1F0401D86B239
:1012E0000A20B6FBF0F606F00108A6EB0800C0F3F2
:1012F0004F074FF6FF7000EA0828022F01DBFF2F8F
:1013000002DD02274FF00008E08840EA0800384379
:101310002884A088A189084361880843218808435C
:1013200040F4006040EA0909A5F81C9005B0BDE84A
:10133000F08F0021018041808180C1800181418145
:101340008181C18107210182704700210180418094
:101350008180C1800221816000218181704721B19B
:10136000028842F04002028004E002884FF6BF7318
:101370001A400280704721B1828B42F480628283DE
:1013800004E0828B4FF6FF331A408283704730B5FA
:10139000002400230C110125A540ABB21AB18588A9
:1013A0001D43858002E085889D43858030BD1AB14C
:1013B00083880B43838002E083888B43838070475C
:1013C000818170470146888970474FF6FF629142DC
:1013D00004D0028842F48072028004E002884FF652
:1013E000FF631A400280704721B1828842F00402F4
:1013F000828004E082884FF6FB731A408280704737
:1014000002884FF2FF731A40028002880A4302806A
:101410007047018841F480510180704721B10288F2
:1014200042F40052028004E002884DF6FF731A4035
:101430000280704702460020012901D0108B00E095
:10144000908A70470146088A7047B1F5804F04D1F1
:10145000028842F48042028004E002884BF6FF7367
:101460001A40028070470246002013890B400BB1DE
:10147000012000E000207047CA4302817047F0B5A8
:101480000246002000240023002501F00F0701265A
:10149000BE40B4B20B1101269E40B3B2968806EA54
:1014A00003051689264016B10DB1012000E0002089
:1014B000F0BD10B5002201F00F040123A3409AB241
:1014C000D343038110BD00000030014000380040CC
:1014D000003C004010B50446FE48844208D101217A
:1014E000C014FFF727FE0021E014FFF723FEC4E03D
:1014F000B4F1804F08D101210846FFF728FE0021F2
:101500000120FFF724FEB8E0F348844208D101210E
:101510000220FFF71CFE00210220FFF718FEACE0BE
:10152000EE48844208D101210420FFF710FE00217B
:101530000420FFF70CFEA0E0E948844208D1012115
:101540000820FFF704FE00210820FFF700FE94E0CA
:10155000E448844208D101211020FFF7F8FD002162
:101560001020FFF7F4FD88E0DF48844208D1012114
:101570002020FFF7ECFD00212020FFF7E8FD7CE0B4
:10158000DA48844208D101214014FFF7D3FD00213D
:101590006014FFF7CFFD70E0D548844209D10121E6
:1015A000C804FFF7C7FD00214FF40020FFF7C2FD7C
:1015B00063E0D048844209D101210805FFF7BAFD54
:1015C00000214FF48010FFF7B5FD56E0CA48844271
:1015D00009D101214805FFF7ADFD00214FF40010AE
:1015E000FFF7A8FD49E0C548844208D10121402009
:1015F000FFF7ADFD00214020FFF7A9FD3DE0C04809
:10160000844208D101218020FFF7A1FD0021802024
:10161000FFF79DFD31E0BB48844208D101218015D0
:10162000FFF795FD0021A015FFF791FD25E0B648D5
:10163000844209D101210804FFF77CFD00214FF409
:101640008030FFF777FD18E0B048844209D10121CE
:101650004804FFF76FFD00214FF40030FFF76AFDEB
:101660000BE0AB48844208D101218804FFF762FDFA
:1016700000214FF48020FFF75DFD10BD002202889D
:10168000944B98420ED0994B98420BD0B0F1804FBA
:1016900008D0914B984205D0904B984202D0904B85
:1016A000984204D14FF68F731A404B881A438D4BE2
:1016B000984207D08C4B984204D04FF6FF431A4013
:1016C000CB881A4302808B8883850B880385814BE6
:1016D00098420BD0854B984208D08B4B984205D04E
:1016E0008A4B984202D08A4B984201D10B7A0386EA
:1016F00001238382704770B5002400220023058CEB
:101700004FF6FE7635400584028C8388048B4FF6B5
:101710008F752C40B51E2C400D882C43751E2A4019
:101720000D892A434D882A436A4DA8420BD06F4D3C
:10173000A84208D0744DA84205D0744DA84202D0EA
:10174000734DA84213D14FF6F7752A404D892A43AD
:101750004FF6FB752A408D882A434FF6FF652B40D4
:101760004FF6FF552B408D892B43CD892B4383802A
:101770000483CD888586028470BD70B50024002264
:101780000023058C4FF6EF7635400584028C838864
:10179000048B48F6FF752C404FF6FF452C400D8812
:1017A0004FF6FF7606EA05252C434FF6DF752A40F3
:1017B0000D8906EA05152A434D8806EA05152A43D0
:1017C000444DA84202D0494DA8421DD14FF67F7525
:1017D0002A404D894FF6FF7606EA05152A434FF653
:1017E000BF752A408D8806EA05152A434FF6FF3556
:1017F0002B404FF2FF752B408D8906EA85052B4360
:10180000CD8906EA85052B4383800483CD8805872F
:10181000028470BD70B5002400220023058C4FF6B1
:10182000FF6635400584028C8388848B4FF68F7564
:101830002C404FF6FC752C400D882C434FF6FF557D
:101840002A400D894FF6FF7606EA05252A434D8882
:1018500006EA05252A431F4DA84202D0234DA8427F
:101860001DD14FF2FF752A404D894FF6FF7606EAEB
:1018700005252A434FF6FF352A408D8806EA0525BF
:101880002A434EF6FF752B404DF6FF752B408D8990
:1018900006EA05152B43CD8906EA05152B438380FF
:1018A0008483CD888587028470BD70B500220023B3
:1018B0000024058C4EF6FF7635400584038C848821
:1018C000828B48F6FF752A404FF6FF452A400D8867
:1018D00020E00000002C014000040040000800400F
:1018E000000C004000100040001400400034014093
:1018F000004C0140005001400054014000180040DD
:10190000001C004000200040004001400044014015
:10191000004801404FF6FF7606EA05252A434DF6BA
:10192000FF752B400D8906EA05352B434D8806EAE5
:1019300005352B43FA4DA84202D0FA4DA84208D1F2
:101940004BF6FF752C408D894FF6FF7606EA85151C
:101950002C4384808283CD88A0F84050038470BDDE
:10196000828B4FF2FF331A408283828B4FF6FF73D4
:1019700003EA01231A4382837047F0B50C461546EB
:10198000002200210026078C4EF6FF7C07EA0C0798
:101990000784828B018C4FF6FF7707EA043640F606
:1019A000FF473A404FF6FF7707EA05273A434FF6DD
:1019B000FF7707EA03373A43D94FB8420ED0D94FE1
:1019C000B8420BD0B0F1804F08D0D74FB84205D005
:1019D000D64FB84202D0D64FB84206D14DF6FF7767
:1019E000394046F48057394305E047F6FF57394000
:1019F00044F48057394382830184F0BD828B4FF6D3
:101A0000F3731A408283828B0A4382837047F0B556
:101A10000C461546002200210026078C4FF6FF6C6D
:101A200007EA0C070784828B018C4FF6FF7707EAE1
:101A300004264FF60C773A404FF6FF7707EA031774
:101A40002F433A43B64FB8420ED0B64FB8420BD0F0
:101A5000B0F1804F08D0B44FB84205D0B34FB84270
:101A600002D0B34FB84206D14FF6FF57394046F483
:101A70008077394305E04FF2FF57394044F48077CF
:101A8000394382830184F0BD028B4FF2FF331A4049
:101A90000283028B4FF6FF7303EA01231A4302838A
:101AA0007047F0B50C461546002200210026078C31
:101AB0004FF6EF7C07EA0C070784028B018C4FF688
:101AC000FF7707EA041640F6FF473A404FF6FF77E4
:101AD00007EA03373A434FF6FF7707EA05273A4309
:101AE0008F4FB8420ED08F4FB8420BD0B0F1804F1D
:101AF00008D08D4FB84205D08C4FB84202D08C4FE1
:101B0000B84206D14FF6DF77394046F01007394327
:101B100005E04FF65F77394044F010073943028300
:101B20000184F0BD028B4FF6F3731A400283028BDF
:101B30000A4302837047F0B50C4615460022002187
:101B4000068C4FF6FE773E400684028B018C4FF6E2
:101B50000C7632407E1C06EA03162E433243704E4A
:101B6000B0420ED06F4EB0420BD0B0F1804F08D0D3
:101B70006D4EB04205D06D4EB04202D06C4EB042B8
:101B800006D14FF6FD76314044F00106314305E0C1
:101B90004FF6F576314044F001063143028301846B
:101BA000F0BD70B505460C465D4885420ED05D48D7
:101BB00085420BD0B5F1804F08D05B48854205D0F7
:101BC0005A48854202D05A48854200D100E000BF01
:101BD000208850B92389A28861882846FFF7ABFF87
:101BE000E1882846FFF79EFF25E0208804280AD1D7
:101BF0002389A28861882846FFF753FFE188284699
:101C0000FFF742FF17E0208808280AD12389A2881D
:101C100061882846FFF7FBFEE1882846FFF7EEFEC5
:101C200009E02389A28861882846FFF7A6FEE1889B
:101C30002846FFF795FE70BD2DE9F04105460C469C
:101C400000260127608808B9022600E00026A08847
:101C5000012801D1022700E001272088A0B92389AB
:101C6000A28861882846FFF766FFE1882846FFF7CB
:101C700059FF23893A4631462846FFF712FFE1888B
:101C80002846FFF701FF13E02389A28861882846D0
:101C9000FFF707FFE1882846FFF7F6FE23893A465B
:101CA00031462846FFF747FFE1882846FFF73AFF0D
:101CB000BDE8F0810A884B881A438B881A43CB8889
:101CC0001A430B891A434B891A438B891A43A0F88C
:101CD000442070474FF6FF71818000210180C18050
:101CE0004180017270470021018041808180C18064
:101CF000018141818181C181704700210180418042
:101D0000012181800021C180018170470021018073
:101D100041808180C18001814181818170470000C3
:101D2000002C014000340140000400400008004045
:101D3000000C004021B1028842F00102028004E060
:101D400002884FF6FE731A400280704731B1B0F836
:101D5000442042F40042A0F8442005E0B0F84420BA
:101D6000C2F30E02A0F8442070471AB183890B43D6
:101D7000838102E083898B4383817047818270472E
:101D800041EA0203A0F8483070471AB183890B4337
:101D9000838102E083898B438381704701894FF6F9
:101DA000F8721140018170470A46002101894FF6FF
:101DB0008F73194011430181704730B504460D46B9
:101DC00029462046FFF7F0FF208940F007002081D8
:101DD00030BD2DE9F04104460D4616461F46602DE4
:101DE00006D13B46012231462046FFF75AFE05E068
:101DF0003B46012231462046FFF79DFE29462046FC
:101E0000FFF7D2FF208940F007002081BDE8F08174
:101E100030B50C4600210189C9B24FF6FF7505EABD
:101E20000325154325432943018130BD2DE9F041A8
:101E300005460E4617469846002443463A46314624
:101E40002846FFF7E5FF2C894FF6F870044044F070
:101E500007044FF68F70044044F070042C81BDE8F5
:101E6000F081F0B504460D4616461F463B46324605
:101E700029462046FFF7CCFF208940F4804020818E
:101E8000F0BD0185828270470A46002101884FF625
:101E90008F731940114301807047F0B50C46154609
:101EA0001E460021002200230189028B038C4FF67D
:101EB000F877394021434FF6FC473A4040F201178A
:101EC0003A434FF6DD773B404FF6FF7707EA0617B8
:101ED0002F433B43018102830384F0BD0A46002166
:101EE000018B4FF68F7319401143018370470A46E7
:101EF0000021018B48F6FF7319404FF6FF7303EA88
:101F000002231943018370470A460021818B4FF653
:101F10008F7319401143818370470A460021818BDA
:101F200048F6FF7319404FF6FF7303EA0223194383
:101F30008183704721B1028842F08002028004E070
:101F400002884FF67F731A400280704721B1828861
:101F500042F00402828004E082884FF6FB731A404C
:101F60008280704721B1828842F00802828004E0BA
:101F700082884FF6F7731A408280704721B18288B9
:101F800042F00102828004E082884FF6FE731A401C
:101F9000828070470A460021018B4FF6F773194083
:101FA0001143018370470A460021018B4FF2FF73F2
:101FB00019404FF6FF7303EA022319430183704768
:101FC0000A460021818B4FF6F77319401143818334
:101FD00070470A460021818B4FF2FF7319404FF67C
:101FE000FF7303EA02231943818370470A460021E5
:101FF000018B4FF6FB7319401143018370470A466A
:102000000021018B4FF6FF3319404FF6FF7303EAAF
:1020100002231943018370470A460021818B4FF642
:10202000FB7319401143818370470A460021818B5D
:102030004FF6FF3319404FF6FF7303EA02231943AB
:10204000818370470A460021018B4FF67F73194048
:102050001143018370470A460021018BC1F30E0131
:102060004FF6FF7303EA02231943018370470A46C0
:102070000021818B4FF67F73194011438183704794
:102080000A460021818BC1F30E014FF6FF7303EA6C
:1020900002231943818370470A460021018C4FF6C1
:1020A000FD7319401143018470470A460021018CD9
:1020B0004FF6F77319401143018470470A46002117
:1020C000018C4FF6DF7319404FF6FF7303EA0213DA
:1020D0001943018470470A460021018C4FF67F7333
:1020E00019404FF6FF7303EA021319430184704746
:1020F0000A460021018C4FF6FF5319404FF6FF733B
:1021000003EA02231943018470470A460021018C27
:102110004FF2FF7319404FF6FF7303EA022319438E
:10212000018470470A460021018C4DF6FF73194067
:102130004FF6FF7303EA023319430184704730B549
:10214000002301248C40A3B2048C9C430484048C9F
:1021500002FA01F5ADB22C43048430BD30B5002342
:1021600004248C40A3B2048C9C430484048C02FAA3
:1021700001F5ADB22C43048430BD70B50346002098
:1021800000241846183001258D40ACB21D8CA543A3
:102190001D8409B1082909D100EB6100056825F00B
:1021A000700505600568154305600EE00D1FC5F359
:1021B0004E052844056825F4E045056005684FF69E
:1021C000FF7606EA02263543056070BD21B102881C
:1021D00042F00202028004E002884FF6FD731A40CA
:1021E0000280704721B1028842F00402028004E0BC
:1021F00002884FF6FB731A400280704721B1828833
:1022000042F08002828004E082884FF67F731A4099
:102210008280704702884FF6F7731A400280028866
:102220000A430280704782884FF68F731A4082807B
:1022300082880A438280704702894FF6F8731A40F9
:10224000028102890A430281704702894FF67F7337
:102250001A40028102890A430281704781847047D3
:1022600081857047818670470187704781877047F5
:10227000A0F84010704702884FF6FF431A400280D2
:1022800002880A43028070470146888E70470146E3
:10229000088F70470146888F70470146B1F84000AB
:1022A00070470146888C70470146088D704702468A
:1022B0000020138A0B400BB1012000E00020704782
:1022C000CA430282704730B5024600200023002432
:1022D000158A05EA0103958905EA010413B10CB1D9
:1022E000012000E0002030BDCA4302827047000098
:1022F00010B50446FB48844209D101218803FEF74A
:1023000019FF00214FF48040FEF714FF32E0F64839
:10231000844209D101214804FEF719FF00214FF43E
:102320000030FEF714FF25E0F048844209D1012176
:102330008804FEF70CFF00214FF48020FEF707FF12
:1023400018E0EB48844209D10121C804FEF7FFFEE2
:1023500000214FF40020FEF7FAFE0BE0E54884422E
:1023600008D101210805FEF7F2FE00214FF480108C
:10237000FEF7EDFE10BD2DE9F04786B005460E468E
:102380000024A24600BFA1460027B08900B100BFCB
:102390002F462C8A4CF6FF700440F08804432C82B0
:1023A000AC894EF6F3100440B08831890843718936
:1023B00008430443AC81AC8A4FF6FF400440B08927
:1023C0000443AC8201A8FEF72EFEC648874202D124
:1023D000DDF810A001E0DDF80CA0A88900F40040B1
:1023E00040B10AEBCA0000EB0A1031684900B0FBAB
:1023F000F1F807E00AEBCA0000EB0A103168890027
:10240000B0FBF1F86420B8FBF0F00401200964216E
:1024100001FB1089A88900F4004040B1322000EB94
:10242000C900B0FBF1F000F00700044308E03220DF
:1024300000EB09106421B0FBF1F000F00F00044341
:102440002C8106B0BDE8F0874FF4165101600021E1
:102450008180C18001810C214181002181817047EF
:1024600010B502460020108A4FF2FF0318400B8877
:102470004C8823438C882343CC8823431843108201
:1024800010BD0021018041808180C180704721B151
:10249000828942F40052828104E082894DF6FF7302
:1024A0001A4082817047F0B50346002400260025BB
:1024B000002040F66A17B94200D100BF1846C1F3A8
:1024C000421401F01F06012707FA06F5012C01D17D
:1024D0000C3004E0022C01D1103000E014301AB1AD
:1024E00007682F43076002E00768AF430760F0BD4D
:1024F0001AB1838A0B43838202E0838A8B438382EF
:102500007047028A4FF6F0731A400282028A0A4329
:102510000282704782894FF2FF731A40828182895A
:102520000A438281704721B1828942F0020282818E
:1025300004E082894FF6FD731A4082817047028A57
:102540004FF6DF731A400282028A0A430282704702
:1025500021B1028A42F48042028204E0028A4BF6F0
:10256000FF731A4002827047C1F3080282807047ED
:1025700001468888C0F308007047818941F0010155
:1025800081817047028BD2B20283028B42EA012220
:1025900002837047028B02F47F420283028B0A435C
:1025A0000283704721B1828A42F02002828204E0D5
:1025B000828A4FF6DF731A408282704721B1828A85
:1025C00042F01002828204E0828A4FF6EF731A40D2
:1025D0008282704721B1828A42F00802828204E03E
:1025E000828A4FF6F7731A408282704721B182893E
:1025F00042F40042828103E08289C2F30E028281AA
:10260000704721B1828A42F40062828204E0828AA9
:102610004FF2FF731A4082827047828A4FF6FB7333
:102620001A408282828A0A438282704721B1828A5A
:1026300042F00202828204E0828A4FF6FD731A4061
:102640008282704702460020B1F5007F00D100BFB2
:1026500013880B400BB1012000E00020704701F40B
:102660000072B2F5007F00D100BFCA4302807047FC
:1026700070B50246002400230025002040F66A16AB
:10268000B14200D100BFC1F3421501F01F03012682
:1026900006FA03F3012D02D19689334006E0022D9C
:1026A00002D1168A334001E0968A33400C1201268B
:1026B00006FA04F41688344013B10CB1012000E08E
:1026C000002070BD10B50022002340F66A14A1421C
:1026D00000D100BF0A1201249440A3B2DC4304805D
:1026E00010BD000000380140004400400048004098
:1026F000004C004000500040002000E0401C40F62C
:10270000FF718842FAD370470EB54FF0000A01F00E
:102710001BF801F013F800F0E4FB4FF6FF7000F037
:10272000D9FC4FF480617648FEF7DBFA4FF6FF7074
:102730007449086004217448FEF7D5FA4FF47843D1
:10274000724AA021642000F021FF00F0D2FA00F0CC
:10275000DEF900F0BAF96EA002F0CAFD192002906D
:10276000CDE000240EE075480078012808D1002053
:102770007249087072480088724941F8240000E0EC
:10278000641E641CB4F5806FEDDB002407E06D4827
:1027900030F8240000046B4941F82400641CB4F5AF
:1027A000806FF4DB4FF480626649674801F036F8C9
:1027B000002412E0644850F82400001440436249A9
:1027C00031F8241009B2604A32F8242012B201FB19
:1027D00002005E4941F82400641CB4F5007FE9DB87
:1027E000012427E00021601E594A42F820106FF0B2
:1027F00001091BE0601E564951F82010502000FBD3
:102800000490524A52F820200298824206DD50205D
:1028100000FB04904D4A52F8200000E000200144E3
:10282000601E4B4A42F8201009F10109B9F1030F6B
:10283000E0DB641C062CD5DB4549086802F0B8F9DA
:10284000434901904968424A92681144404AD2681B
:1028500011443F4A1269881802F0AAF900900199C0
:1028600002F068F9834602F0C0F9074603F0D8F990
:10287000054602F0CDF937490860FFF73DFF3648BD
:1028800001683448006802F0CBF8334908600AF167
:10289000010ABAF1030F32D1504602F089F980469D
:1028A00041462D48006802F045F9074602F09DF9BF
:1028B00005462A460B4629A002F01AFD504602F0B2
:1028C00077F9834659462448006802F033F9804678
:1028D000234902F0FDF8074602F087F905462A462B
:1028E0000B4620A1234802F013FD0023214A782142
:1028F0003C2000F04BFE002017490860824630E77C
:10290000000C01409C03002000140140280000201E
:102910000D0A202D2D2D2DD5E2CAC7D2BBB8F64108
:102920004443B5A5CDA8B5C0444D41B6C1C8A1CA60
:10293000B5D1E92D2D2D2D0D0A0000003800002005
:102940003A000020AC030020AC130020AC1B002098
:10295000AC230020300000203400002025660A004F
:102960000000C842544844203D20252E34662525C9
:1029700000000000C0230020704700BFFEE700BF3A
:10298000FEE700BFFEE700BFFEE7704770477047F5
:10299000704710B501210A48FFF795FC70B109484E
:1029A0000078012803D100200649087002E00120C8
:1029B0000449087001210248FFF796FC10BD000091
:1029C000001000403800002008B501211020FEF75B
:1029D00097FB0220ADF8000000208DF80300694647
:1029E0003D48FEF7D1F808BD00B591B00121084679
:1029F000FEF779FB01214802FEF782FB3748FDF71D
:102A000039FF37480690374807900020089001208A
:102A1000099000200A900B904FF480700C90800079
:102A20000D9020200E9000020F900020109006A91B
:102A30002A48FDF7C1FF01212848FDF7E8FF0020E3
:102A400001908DF8080001208DF809004FF46020F6
:102A500003900020049001208DF8140001A9204863
:102A60004C38FDF706FD4FF44040FEF7ADFA002369
:102A700001220B211A484C38FDF793FD012118481B
:102A80004C38FDF72DFD012115484C38FDF71DFD93
:102A900013484C38FDF73BFD00BF11484C38FDF79B
:102AA0003BFD0028F9D10E484C38FDF73FFD00BF33
:102AB0000B484C38FDF73FFD0028F9D101210848AB
:102AC0004C38FDF742FD11B000BD10B5FFF77CFF9B
:102AD000FFF78AFF10BD000000100140080002400F
:102AE0004C2401403A00002008B54FF4A060FDF7E7
:102AF0002BFC25208DF8000001208DF801008DF8B9
:102B000002008DF803006846FDF723FC08BD00B500
:102B100085B001210420FEF7F3FA01218803FEF7B6
:102B2000EFFA4FF40070ADF8100018208DF8130084
:102B300003208DF8120004A95248FEF725F84FF43F
:102B40008060ADF8100004208DF8130004A94D48F2
:102B5000FEF71AF84FF4E13000900020ADF80400C1
:102B6000ADF80600ADF80800ADF80C000C20ADF88B
:102B70000A0069464448FFF7FEFBFFF7B5FF012254
:102B800040F225514048FFF78EFC01213E48FFF7F7
:102B90007EFC05B000BD70B504460D4629462046B2
:102BA000FFF7E2FC00BF80212046FFF74BFD002825
:102BB000F9D070BD2DE9F04107460D4616460024B8
:102BC00005E0295D3846FFF7E6FF601CC4B2B44259
:102BD000F7DB00BF40213846FFF734FD0028F9D06D
:102BE000BDE8F08170B506460C46002500BF615D6A
:102BF0003046FFF7D0FF6D1C605D0028F7D100BFA5
:102C000040213046FFF71EFD0028F9D070BD2DE9A8
:102C1000F04105460C46260AE7B231462846FFF742
:102C2000A3FC00BF80212846FFF70CFD0028F9D047
:102C300039462846FFF798FC00BF80212846FFF759
:102C400001FD0028F9D0BDE8F08170B504460D46BD
:102C5000E1B20D48FFF788FC00BF80210A48FFF76A
:102C6000F1FC0028F9D0204670BD10B5044600BF25
:102C700020210548FFF7E6FC0028F9D00248FFF7BD
:102C800077FC10BD000801400038014008B54FF442
:102C9000E060FDF759FB36208DF8000000208DF82C
:102CA000010003208DF8020001208DF80300684622
:102CB000FDF74FFB08BD0EB501211020FEF72DFAE0
:102CC0004FF41C70ADF804000820ADF80000694610
:102CD0000B48FEF7D3FC01210948FFF7F1FA012266
:102CE00011460748FFF741F801210548FFF722F890
:102CF0000EBD10B5FFF7CAFFFFF7DDFF10BD0000E6
:102D00000010004070B504464FF48051F748FDF7BD
:102D1000EAFF00251BE04FF40051F448FDF7E3FF04
:102D200004F0800028B14FF40041F048FDF7D9FFCE
:102D300004E04FF40041ED48FDF7D5FF4FF400519A
:102D4000EA48FDF7CEFF6006040E681CC5B2082DE8
:102D5000E1DB4FF48051E548FDF7C3FF70BD10B5CE
:102D600004462146E248FEF72BFB00BF0221E04863
:102D7000FEF779FB0028F9D010BD10B504464FF4DA
:102D80008051DA48FDF7AFFF4FF48041D748FDF797
:102D9000AAFF2046FFF7E3FF4FF48051D348FDF729
:102DA000A0FF10BD10B504464FF48051CF48FDF789
:102DB0009AFF4FF48041CD48FDF793FF2046FFF77F
:102DC000CEFF4FF48051C948FDF78BFF10BD10B501
:102DD00004464FF48051C548FDF785FF4FF480410C
:102DE000C248FDF77EFFC4F30720FFF7B8FFE0B24B
:102DF000FFF7B5FF4FF48051BC48FDF772FF10BDDF
:102E00002DE9F04107460C4615461E462A20FFF7DD
:102E1000B4FF3846FFF7DBFF2846FFF7D8FF2B202B
:102E2000FFF7ABFF2046FFF7D2FF3046FFF7CFFF9B
:102E30002C20FFF7A2FFBDE8F08100B585B001218D
:102E40008803FEF76AF94FF40070ADF80A0000201D
:102E5000ADF80800ADF806004FF48270ADF802003E
:102E60000020ADF80400ADF80E004FF44040ADF87E
:102E700000000720ADF810000020ADF80C006946F6
:102E80009B48FEF7C7F901219948FEF768FA05B09B
:102E900000BD08B501210820FEF732F94FF4B84013
:102EA000ADF8000010208DF8030003208DF802001B
:102EB00069468E48FDF768FE01210820FEF720F9DB
:102EC0004FF42040ADF8000018208DF8030069464B
:102ED0008648FDF759FE4FF480518448FDF701FF05
:102EE00008BD10B5FFF7D5FFFFF7A7FF4FF48051DE
:102EF0007E48FDF7F6FE4FF400617C48FDF7F1FED9
:102F00004FF480417948FDF7ECFE4FF400617748BB
:102F1000FDF7E9FE142000F054FC4FF40061734803
:102F2000FDF7DFFE642000F04CFC4FF480616F4839
:102F3000FDF7D7FE1120FFF720FF782000F041FCBD
:102F40003620FFF71AFF0020FFF72CFF3A20FFF78B
:102F500014FF5520FFF726FFB220FFF70EFF0C20CD
:102F6000FFF720FF0C20FFF71DFF0020FFF71AFFDF
:102F70003320FFF717FF3320FFF714FFB720FFF7C9
:102F8000FCFE3520FFF70EFFBB20FFF7F6FE3220D8
:102F9000FFF708FFC220FFF7F0FE0120FFF702FF56
:102FA000C320FFF7EAFE1920FFF7FCFEC420FFF75D
:102FB000E4FE2020FFF7F6FEC620FFF7DEFE0F201E
:102FC000FFF7F0FED020FFF7D8FEA420FFF7EAFEBF
:102FD000A120FFF7E7FEE020FFF7CFFED020FFF7AC
:102FE000E1FE0820FFF7DEFE0E20FFF7DBFE0920E2
:102FF000FFF7D8FE0920FFF7D5FE0520FFF7D2FE28
:103000003120FFF7CFFE3320FFF7CCFE4820FFF73B
:10301000C9FE1720FFF7C6FE1420FFF7C3FE1520D8
:10302000FFF7C0FE3120FFF7BDFE3420FFF7BAFEE8
:10303000E120FFF7A2FED020FFF7B4FE0820FFF743
:10304000B1FE0E20FFF7AEFE0920FFF7ABFE092010
:10305000FFF7A8FE1520FFF7A5FE3120FFF7A2FE1F
:103060003320FFF79FFE4820FFF79CFE1720FFF755
:1030700099FE1420FFF796FE1520FFF793FE3120EE
:10308000FFF790FE3420FFF78DFE2120FFF775FE3D
:103090002A20FFF772FE0020FFF784FE0020FFF7D2
:1030A00081FE0020FFF77EFEEF20FFF77BFE2B2046
:1030B000FFF763FE0020FFF775FE0020FFF772FEAA
:1030C0000020FFF76FFEEF20FFF76CFE2920FFF7CF
:1030D00054FE10BD70B50646EF231A46002108467F
:1030E000FFF78EFE00240CE0002507E0000C0140F5
:1030F000003800403046FFF76AFE6D1CF02DF9D312
:10310000641CF02CF0D370BD70B588B02022F84953
:10311000684601F073FCEF231A4600210846FFF7CA
:103120006FFE00240EE0002509E0002604E05DF8B3
:103130002400FFF74CFE761CF02EF8D36D1C1E2DDC
:10314000F3D3641C082CEED3002500BF00BF08B0E9
:1031500070BD70B5EF231A4600210846FFF750FEF8
:1031600000251AE0002400BF00BF00BF12E00026C7
:103170000DE02101A20041EAD201C8B2FFF712FE20
:10318000E10141EA4401C8B2FFF70CFE761C0F2EA4
:10319000EFD3641C102CEAD36D1CF02DE2D370BD6C
:1031A00070B5EF231A4600210846FFF729FE0024D8
:1031B00000250CE0002606E02046FFF708FEE0436D
:1031C000FFF705FE761C782EF6D3E4436D1CF02D38
:1031D000F0D370BD70B53C26EF231A460021084697
:1031E000FFF70EFE002509E0002404E047F6EF306B
:1031F000FFF7EDFD641CF02CF8D36D1CB542F3D342
:1032000000251AE0002404E047F6EF30FFF7DFFD69
:10321000641C3C2CF8D3002403E00020FFF7D7FD0A
:10322000641C782CF9D3002404E047F6EF30FFF754
:10323000CEFD641C3C2CF8D36D1CB5EB460FE1D3DE
:10324000002509E0002404E047F6EF30FFF7BFFD5A
:10325000641CF02CF8D36D1CB542F3D370BD2DE97E
:10326000F05F81468A4693461C46102C00D1A14D42
:10327000202C00D1A04D0AEB0400431E09EB0400F2
:10328000421E51464846FFF7BBFD04FB04F0C11740
:1032900000EB5171C1F3C7080BFB0855002715E07F
:1032A00000260EE028780121B140084018B10A98A4
:1032B000FFF78DFD03E091480068FFF788FD701C63
:1032C000C6B2082EEEDB6D1C781CC7B24745E7DBA3
:1032D000BDE8F09F70B504460D4616462B462246C3
:1032E00029462046FFF78CFD3046FFF770FD70BD84
:1032F0002DE9F04704460D4616461F46DDF820A08E
:103300003B46324629462046FFF77AFDA8460AE0AA
:10331000A14604E05046FFF75AFD09F10109B14505
:10332000F8D908F10108B845F2D9BDE8F087F8B539
:1033300004460D461646691E601E6B1C621C0096F4
:10334000FFF7D6FFF8BD2DE9FF4F85B081468A46CD
:103350000020039083460798A0EB09040898A0EB8F
:103360000A06CDF80890CDF804A0002C01DD012755
:1033700005E00CB9002702E04FF0FF376442002E51
:1033800002DD4FF0010806E016B94FF0000802E038
:103390004FF0FF386642B44201DD254600E0354675
:1033A000002004901BE0129ADDE90110FFF792FF64
:1033B000039820440390B3440398A84205DD039882
:1033C000401B0390029838440290AB4504DDABEB00
:1033D000050B0198404401900498401C0490691C1E
:1033E00004988842DFD309B0BDE8F08F2DE9F84397
:1033F00005460E4617469846089C33463A463146DF
:1034000028460094FFF79FFF43462A463146284648
:103410000094FFF798FF43463A46414628460094F9
:10342000FFF791FF43463A46314638460094FFF78E
:103430008AFFBDE8F8832DE9F04706460F4690461F
:1034400099460025444631E0791B301B4A46FFF778
:1034500041FF791B30194A46FFF73CFF3919701BB1
:103460004A46FFF737FF391B701B4A46FFF732FF0A
:10347000791930194A46FFF72DFF391B70194A4652
:10348000FFF728FF391970194A46FFF723FF79190A
:10349000301B4A46FFF71EFF6D1C05FB05F004FBC1
:1034A000040108FB08F0814200DD641EA542CBDD6B
:1034B000BDE8F0872DE9F84F05460F4616469A46B7
:1034C000DDF828B00095E02D01D8E02F01D9BDE846
:1034D000F88FA6F12000C6B207F10F03EA1D3946A6
:1034E0002846FFF78DFCBAF1000F2DD1002428E00B
:1034F000DC6E0008BC0200203C0000209C03002081
:1035000004EB0610894911F800904FF0000811E013
:1035100009F0010018B15846FFF759FC03E0844850
:103520000068FFF754FC4FEA69096D1C08F10100BF
:1035300000F0FF08B8F1080FEADB009D7F1C601C5B
:10354000C4B2102CDCDB1FE000241BE004EB0610EF
:10355000764911F800904FF000080EE009F00100E4
:1035600028B1391905EB08005A46FFF7B3FE4FEAB8
:10357000690908F1010000F0FF08B8F1080FEDDB60
:10358000601CC4B2102CE1DB00BFA0E7F8B5054613
:103590000E4614461F4615E0E02D01D900251036D1
:1035A000E02E06D90020054606464FF47840FFF786
:1035B00091FD00972278002331462846FFF77AFFD5
:1035C0000835641C20780028E6D1F8BD10B5024605
:1035D000012000E050430B1EA1F10104E1B2F9D13A
:1035E00010BD2DE9F84F06468A4690461D46DDF887
:1035F00028904FF0000B00242FE0281B401EC1B282
:103600000A20FFF7E3FFB8FBF0F00A21B0FBF1F26C
:1036100001FB1207BBF1000F10D1681EA0420DDDA7
:1036200057B9082101FB0460002320225146CDF840
:103630000090FFF73FFF0EE04FF0010B07F1300164
:10364000CAB2082101FB046000235146CDF8009066
:10365000FFF730FF00BF601CC4B2AC42CDDBBDE859
:10366000F88F2DE9FC5F06468A4617461C46DDF8B2
:103670003080002001902F49384601F029FA00904F
:1036800001F09FFA834600252CE0601B401EC1B26A
:103690000A20FFF79BFFBBFBF0F00A21B0FBF1F221
:1036A00001FB1209A01EA8420ED1A11E082202FB96
:1036B000016000232E225146CDF80080FFF7FAFE6C
:1036C000681CC5B2601CC4B209F13001CAB208213D
:1036D00001FB056000235146CDF80080FFF7EAFEAC
:1036E000681CC5B2A542D0DBBDE8FC9F2DE9F041C6
:1036F00005460E461746984643463A463146284602
:10370000FFF77EFB00240CE0012101EB44010A4A93
:10371000505CFFF747FB084911F81400FFF742FB24
:10372000641CB4F5C86FEFDBBDE8F0816C5C000889
:103730009C0300200000C8425C62000810B54FF4F2
:10374000A060FCF701FE10BD10B56FF00400FCF79F
:103750004AFE2E4800682E49B0FBF1F02D49087052
:103760000846007800EB4001C1EBC0104FF6FF7136
:1037700001EAC0002849088010BD0146254A127898
:103780004A434FF0E0235A6100229A611A461269B7
:1037900042F001021A6100BF4FF0E022106900F010
:1037A00001021AB100F48032002AF5D04FF0E02275
:1037B000126922F001024FF0E0231A6100229A619F
:1037C00070470146144A12884A434FF0E0235A6179
:1037D00000229A611A46126942F001021A6100BF82
:1037E0004FF0E022106900F001021AB100F48032BB
:1037F000002AF5D04FF0E022126922F001024FF0CA
:10380000E0231A6100229A61704700000000002046
:1038100000127A00A0030020A20300202DE9F04F3F
:103820004FF0000C4FF0000301EB9C5EBEF902501C
:10383000BEF900400EF5806EBEF90290BEF9008020
:103840000EF5806EBEF90270BEF900600EF5806E56
:10385000BEF902B0BEF900A00EF5806ED044D94486
:10386000A8EB4A0AA9EB4B0B4FEAA4044FEAA505C3
:1038700004EBA60405EBA705A4EB6606A5EB67071A
:1038800004EBA80405EBA905A4EB6808A5EB6909FE
:1038900006EBAB06A7EBAA07A6EB6B0B07EB6A0AD6
:1038A000458020F8044B478020F8046BA0F8029074
:1038B00020F8048BA0F802A020F804BB03F1010358
:1038C00093FAA3FCB3F5807FAED1A0EB82014FF059
:1038D000100312090FF2341000F1000006B403EBDC
:1038E000430C6144A2F5803202EB8332B1F90250FD
:1038F000B1F90040A1EB0301B0F902B0B0F900A0AA
:1039000000F10400A5EB040E0EFB0BFC0AEB4B0EC2
:1039100005FB0ACB04FB0ECAB1F90250B1F9004015
:10392000A1EB0301B0F90290B0F9008000F10400AE
:10393000A5EB040E0EFB09FC08EB490E05FB08C9BC
:1039400004FB0EC8B1F90250B1F90040A1EB03012C
:10395000B0F90270B0F9006000F10400A5EB040EAC
:103960000EFB07FC06EB470E05FB06C704FB0EC665
:10397000B1F90250B1F9004001F10001D044D9443D
:10398000A8EB4A0AA9EB4B0B4FEAA4044FEAA505A2
:1039900004EB264405EB2745A4EBE636A5EBE73719
:1039A00004EB284405EB2945A4EBE838A5EBE939FD
:1039B00006EB2B46A7EB2A47A6EBEB3B07EBEA3AD5
:1039C0004D800C8019444F800E801944A1F802905C
:1039D000A1F800801944A1F802A021F804BBB2F5B7
:1039E000803283DA03EB430C6144A2F101025FEA07
:1039F000024E18BFA0EB0C007FF476AF06BC4FEA76
:103A0000830392087FF46AAFBDE8F08F00400000A6
:103A100000400000004000005DDD213BA3227E1835
:103A20000000412D7EA5412D0000412D00C0004029
:103A30005DDD82E75DDD213B7EA5412D004000007C
:103A40000040000000400000AA2A94126B3946068C
:103A500049327C0CA8118E2349327C0CA3227E189B
:103A600021F77931AA2A9412A8118E235DDD213B1A
:103A7000A3227E180000412D95C6B13F461A2B1E89
:103A800058EE3735BEB4C53EA8118E235DDD213B0F
:103A900063A97138DF089A28B7CDC53E7EA5412DB0
:103AA0000000412D00C0004063A92B1E21F7793191
:103AB000BEB4C53EBEB47C0C58EE373561AC213B7C
:103AC00095C6BAF9BAE571383BA737355DDD82E7AF
:103AD0005DDD213B7EA5412D21F766D756D53F3DC3
:103AE0003BA78E23A811C9CAB7CDC53E61AC7E18CD
:103AF000AA2AC1C295C6B13FBEB47C0C00400000EA
:103B000000400000004000001E3BB504693E9201E9
:103B1000C83C2403EB356409C83C24036B394606D2
:103B20006C30060E1E3BB504EB356409AA2A9412CC
:103B30006B39460649327C0CAE240917AF37D607DD
:103B4000882E8D0F7E1E5D1BEB356409AA2A941208
:103B500024188C1F1E34F10AB3269015A8118E2349
:103B600049327C0CA3227E18140B60276C30060EA1
:103B70007E1E5D1B7104FB2A882E8D0F461A2B1E9C
:103B8000C7FD5A2E9D2C1211FE15E72021F7793121
:103B9000AA2A9412A8118E2387F05334B228131442
:103BA000480D202602EAE536B3269015DF089A284C
:103BB0009CE32B39AE2409177104FB2A5DDD213B00
:103BC000A3227E180000412D4ED7C53C9320EF194B
:103BD0008FFB6C2F78D1153E7E1E5D1B21F779314E
:103BE000E2CB0F3F641CC61CB8F2683395C6B13FE8
:103BF000461A2B1E58EE373597C1FB3F24188C1FF1
:103C000002EAE536F0BCEC3FFE15E720BAE5713874
:103C1000A6B8853FD5133D2282E1DB39BEB4C53E4F
:103C2000A8118E235DDD213B40B1AF3D790FDA2431
:103C30004DD9423C2EAE423C480D202656D53F3D44
:103C40008EAB823A140B602778D1153E63A9713888
:103C5000DF089A28B7CDC53EB1A71236A906CE29EE
:103C600015CA4F3F78A668337104FB2A95C6B13F49
:103C7000BCA576303902212C38C3EC3F7EA5412DFE
:103C80000000412D00C00040BCA5CE29C7FD5A2E22
:103C9000F0BCEC3F78A620268FFB6C2F09BAB13F11
:103CA000B1A73D2257F976304DB74F3F63A92B1E80
:103CB00021F77931BEB4C53E8EABEF19ECF4743206
:103CC0005EB2153E2EAE9015B8F268332DB03F3D72
:103CD00040B1121187F053342EAE423CBEB47C0C7E
:103CE00058EE373561AC213BA6B8D6072BEC12361F
:103CF000C8AADB39F0BC240302EAE53663A97138AF
:103D000097C16EFEDCE7B03734A8E53695C6BAF940
:103D1000BAE571383BA73735E2CB0FF59CE32B3979
:103D200078A6683378D173F082E1DB39EDA579317B
:103D30004ED7EDEB6DDF823A99A56C2F5DDD82E702
:103D40005DDD213B7EA5412D9CE33AE352DBB63B92
:103D500099A5FB2A02EA19DF4DD9423CEDA59A2824
:103D600087F026DB4ED7C53C78A6202621F766D7FC
:103D700056D53F3D3BA78E23C7FDDFD363D3AF3D71
:103D800034A8E720710494D078D1153E63A92B1E86
:103D9000140B8CCD94CF723EC8AA5D1BA811C9CA62
:103DA000B7CDC53E61AC7E18241850C8E2CB0F3F9A
:103DB0002EAE90157E1E25C615CA4F3F2DB094120B
:103DC000AE244AC451C8853F5EB28D0FAA2AC1C233
:103DD00095C6B13FBEB47C0C6C308EC1E2C4D43FFA
:103DE0004DB76409EB35B1C038C3EC3F09BA46069C
:103DF0001E3B2CC097C1FB3FF0BC240300400000D9
:103E00000040000000400000D03E2E019B3F6500B6
:103E1000363FC9009A3D5B02363FC900693E9201B8
:103E20005F3C8803D03E2E019A3D5B021E3BB504E9
:103E3000693E9201C83C2403D939E205023EF701EC
:103E4000F43BED038E380E079A3D5B021E3BB50432
:103E50003F373908313DC002463A7E05EB356409EB
:103E6000C83C24036B39460692348E0A5F3C8803B3
:103E70008E380E073433B70BF43BED03AF37D6075C
:103E8000D231DF0C8A3B5104CE369D086C30060ED1
:103E90001E3BB504EB356409022F2B0FB23A1A050D
:103EA00005352B0A932D5010463A7E051E34F10A33
:103EB000212C7311D939E2053433B70BAA2A941295
:103EC0006B39460649327C0C3129B413FD38AA06F9
:103ED0005B31410DB327D2148E380E076C30060EBD
:103EE0003226EE151F3872077B2FCA0EAE24091733
:103EF000AF37D607882E8D0F262321183F37390874
:103F0000932D50109C213719CE369D089D2C1211EF
:103F10000E204B1A5D360109A42BD3117E1E5D1BAA
:103F2000EB356409AA2A9412EB1C6C1C7835C7097E
:103F3000AF295413561B791D05352B0AB2281314CB
:103F4000BE19841E92348E0AB327D21424188C1FF3
:103F50001E34F10AB326901588169120A933540B0C
:103F6000B1254C16EA1493213433B70BAE2409174C
:103F70004A139222BF321A0CA923C417A8118E2308
:103F800049327C0CA3227E1805108824D231DF0C24
:103F90009C213719610E7E255B31410D9320EF196D
:103FA000BB0C7126E430A40D891FA71A140B6027DF
:103FB0006C30060E7E1E5D1B6D094C28F42F680EBA
:103FC000721D121CC40735297B2FCA0E641CC61C27
:103FD0001B061A2A022F2B0F561B791D7104FB2A70
:103FE000882E8D0F461A2B1EC702D82B0E2EEE0FD1
:103FF0003519DC1E1C01B22C932D501024188C1F77
:1040000072FF882D182DB11011173A20C7FD5A2EB6
:104010009D2C1211FE15E7201DFC282F212C731159
:10402000EA14932173FAF22FA42BD311D5133D2256
:10403000CAF8B830282B3412BF12E72221F77931A1
:10404000AA2A9412A8118E2379F536322D2AF41259
:1040500091103524D2F3EF32AF295413790FDA24BB
:104060002CF2A3333129B413610E7E2587F053342B
:10407000B2281314480D2026E3EEFF3433287314BE
:104080002E0CC12641EDA535B327D214140B6027A1
:10409000A1EB483633273115FA09FE2702EAE53647
:1040A000B3269015DF089A2865E87E373226EE158C
:1040B000C4073529CBE61238B1254C16A906CE29FE
:1040C00032E5A1382F25AB168D05652A9CE32B39E7
:1040D000AE2409177104FB2A08E2B0392B246617B5
:1040E00055038F2B77E0303AA923C4173902212CCE
:1040F000E9DEAB3A262321181C01B22C5DDD213B01
:10410000A3227E180000412DD5DB923B1F22DB1835
:10411000E4FECF2D4FDAFD3B9C213719C7FD5A2E07
:10412000CDD8643C17219319ABFCE42E4ED7C53C87
:104130009320EF198FFB6C2FD3D5213D0E204B1A06
:1041400073FAF22F5CD4783D891FA71A57F976309D
:10415000E8D2C93D041F021B3CF8F93078D1153E66
:104160007E1E5D1B21F779310CD05C3EF81DB81B1B
:1041700006F6F831A5CE9D3E721D121CECF4743289
:1041800041CDD83EEB1C6C1CD2F3EF32E2CB0F3F9B
:10419000641CC61CB8F2683388CA403FDD1B201D72
:1041A0009FF1DF3332C96B3F561B791D87F05334C3
:1041B000E1C7913FCE1AD31D6FEFC63495C6B13F0C
:1041C000461A2B1E58EE37354EC5CC3FBE19841EFD
:1041D00041EDA5350CC4E13F3519DC1E2BEC123640
:1041E000CFC2F13FAD18341F16EB7D3697C1FB3FB0
:1041F00024188C1F02EAE53665C000409B17E31FB8
:10420000EFE84B3738BFFF3F11173A20DCE7B037F4
:1042100011BEF83F88169120CBE61238F0BCEC3F77
:10422000FE15E720BAE57138D4BBDB3F74153D219C
:10423000AAE4CF38BFBAC43FEA1493219CE32B39D8
:10424000AFB9A73F5F14E8218EE28439A6B8853F55
:10425000D5133D2282E1DB39A2B75D3F4A1392229A
:1042600077E0303AA5B6303FBF12E7226DDF823AE1
:10427000AFB5FD3E34123B2364DED33ABEB4C53E37
:10428000A8118E235DDD213BD5B3883E1D11E223AD
:1042900057DC6D3BF2B2453E9110352452DBB63B04
:1042A00015B2FC3D051088244FDAFD3B40B1AF3D0F
:1042B000790FDA244DD9423C71B05B3DED0E2C25CF
:1042C0004DD8853CA9AF033D610E7E254ED7C53C38
:1042D000E8AEA53CD40DCF2551D6033D2EAE423CD1
:1042E000480D202656D53F3D7BADDA3BBB0C7126F1
:1042F0005CD4783DD0AC6D3B2E0CC12663D3AF3D72
:104300002BACFA3AA10B11276DD2E33D8EAB823A6A
:10431000140B602778D1153EF8AA063A870AAF2712
:1043200085D0453E6AAA8439FA09FE2794CF723EA9
:10433000E3A9FD386D094C28A5CE9D3E63A97138CF
:10434000DF089A28B7CDC53EEBA8E1375208E72829
:10435000CCCCEB3E7BA84B37C4073529E2CB0F3FD3
:1043600012A8B13636078129FBCA303FB1A71236F1
:10437000A906CE2915CA4F3F57A76E351B061A2A24
:1043800032C96B3F05A7C6348D05652A51C8853FE4
:10439000BBA61934FF04B02A72C79C3F78A66833C5
:1043A0007104FB2A95C6B13F3EA6B232E303452B0A
:1043B000BAC5C43F0BA6F83155038F2BE2C4D43FD6
:1043C000E0A53931C702D82B0CC4E13FBCA576303B
:1043D0003902212C38C3EC3FA1A5AF2FAA016A2CCA
:1043E00066C2F53F8DA5E42E1C01B22C97C1FB3FA0
:1043F00081A5152E8E00FA2CCAC0FF3F7EA5412D47
:104400000000412D00C0004081A56A2C72FF882D5C
:1044100038BFFF3F8DA58F2BE4FECF2D73BEFB3F32
:10442000A1A5B02A56FE152EB0BDF53FBCA5CE29DC
:10443000C7FD5A2EF0BCEC3FE0A5E72839FD9F2EC2
:1044400032BCE13F0BA6FE27ABFCE42E77BBD43F8A
:104450003EA611271DFC282FBFBAC43F78A62026F0
:104460008FFB6C2F09BAB13FBBA62C2501FBAF2FE8
:1044700056B99C3F05A7352473FAF22FA6B8853F9D
:1044800057A73B23E5F93430F8B76B3FB1A73D227E
:1044900057F976304DB74F3F12A83D21CAF8B830D2
:1044A000A5B6303F7BA83A203CF8F93000B60F3F64
:1044B000EBA8341FAEF739315EB5EB3E63A92B1E76
:1044C00021F77931BEB4C53EE3A9201D93F6B93179
:1044D00022B49D3E6AAA121C06F6F83188B3723ED9
:1044E000F8AA021B79F53632F2B2453E8EABEF19CF
:1044F000ECF474325EB2153E2BACDB185FF4B232D2
:10450000CDB1E33DD0ACC417D2F3EF3240B1AF3DF3
:104510007BADAB1645F32C33B5B0783D2EAE901580
:10452000B8F268332DB03F3DE8AE73142CF2A333DC
:10453000A9AF033DA9AF54139FF1DF3328AFC53CAA
:1045400071B0341213F11934A9AE853C40B1121187
:1045500087F053342EAE423C15B2EE0FFBEF8D3494
:10456000B6ADFD3BF2B2CA0E6FEFC63441ADB63BFD
:10457000D5B3A40DE3EEFF34D0AC6D3BBEB47C0CE0
:1045800058EE373561AC213BAFB5540BCCED6E35F1
:10459000F6ABD33AA5B62B0A41EDA5358EAB823AE0
:1045A000A2B70109B6ECDC3529AB303AA6B8D6077C
:1045B0002BEC1236C8AADB39AFB9AA06A1EB4836F4
:1045C0006AAA8439BFBA7E0516EB7D360FAA2B394D
:1045D000D4BB51048CEAB136B7A9CF38F0BC240360
:1045E00002EAE53663A9713811BEF70178E9183798
:1045F00012A9123838BFC900EFE84B37C5A8B03749
:1046000065C09BFF65E87E377BA84B3797C16EFE80
:10461000DCE7B03734A8E536CFC240FD53E7E137D9
:10462000F1A77D360CC413FCCBE61238B1A71236C5
:104630004EC5E6FA42E6423874A7A53595C6BAF9E2
:10464000BAE571383BA73735E1C78EF832E5A138B6
:1046500005A7C63432C963F7AAE4CF38D3A65334CA
:1046600088CA39F623E4FD38A4A6DF33E2CB0FF580
:104670009CE32B3978A6683341CDE6F315E358392E
:1046800050A6EF32A5CEBFF28EE284392CA674324A
:104690000CD098F108E2B0390BA6F83178D173F05C
:1046A00082E1DB39EDA57931E8D24FEFFCE0063A43
:1046B000D3A5F9305CD42DEE77E0303ABCA5763046
:1046C000D3D50CEDF2DF593AA9A5F22F4ED7EDEB79
:1046D0006DDF823A99A56C2FCDD8CFEAE9DEAB3AEF
:1046E0008DA5E42E4FDAB4E964DED33A85A55A2EBF
:1046F000D5DB9AE8E1DDFA3A7FA5CF2D5DDD82E7D3
:104700005DDD213B7EA5412DE9DE6DE6DADC473B30
:104710007FA5B22C77E059E557DC6D3B85A5212CB0
:1047200008E248E4D5DB923B8DA58F2B9CE33AE36E
:1047300052DBB63B99A5FB2A32E52DE2D1DADA3B12
:10474000A9A5652ACBE624E14FDAFD3BBCA5CE291D
:1047500065E81DE0CED9203CD3A5352902EA19DF52
:104760004DD9423CEDA59A28A1EB18DECDD8643C8A
:104770000BA6FE2741ED19DD4DD8853C2CA6602700
:10478000E3EE1EDCCDD7A53C50A6C12687F026DB84
:104790004ED7C53C78A620262CF231DACFD6E43CA1
:1047A000A4A67E25D2F33FD951D6033DD3A6DA2461
:1047B00079F551D8D3D5213D05A7352421F766D702
:1047C00056D53F3D3BA78E23CAF87FD6D8D45B3D54
:1047D00074A7E72273FA9BD55CD4783DB1A73D223C
:1047E0001DFCBBD4DFD3933DF1A79321C7FDDFD3DD
:1047F00063D3AF3D34A8E72072FF06D3E8D2C93DAA
:104800007BA83A201C0131D26DD2E33DC5A88C1F94
:10481000C70261D1F2D1FC3D12A9DC1E710494D013
:1048200078D1153E63A92B1E1B06CCCFFED02D3EA2
:10483000B7A9791DC40707CF85D0453E0FAAC61C6E
:104840006D0947CE0CD05C3E6AAA121C140B8CCDAD
:1048500094CF723EC8AA5D1BBB0CD4CC1CCF883E43
:1048600029ABA71A610E21CCA5CE9D3E8EABEF19C8
:10487000051073CB2ECEB13EF6AB3719A811C9CABD
:10488000B7CDC53E61AC7E184A1324CA41CDD83E8F
:10489000D0ACC417EA1483C9CCCCEB3E41AD0917A8
:1048A0008816E8C857CCFD3EB6AD4C16241850C843
:1048B000E2CB0F3F2EAE9015BE19BEC76ECB203F88
:1048C000A9AED214561B31C7FBCA303F28AF131410
:1048D000EB1CA8C688CA403FA9AF54137E1E25C64C
:1048E00015CA4F3F2DB094120E20A7C5A3C95D3F36
:1048F000B5B0D3119C212DC532C96B3F40B1121107
:104900002623B9C4C1C8783FCDB15010AE244AC4E3
:1049100051C8853F5EB28D0F3226E0C3E1C7913F9B
:10492000F2B2CA0EB3277BC372C79C3F88B3060E90
:1049300031291CC303C7A73F22B4410DAA2AC1C213
:1049400095C6B13FBEB47C0C212C6DC227C6BB3FBF
:104950005EB5B70B932D1DC2BAC5C43F00B6F10AB0
:10496000022FD3C14EC5CC3FA5B62B0A6C308EC1E9
:10497000E2C4D43F4DB76409D2314FC176C4DB3FA6
:10498000F8B79D08343315C10CC4E13FA6B8D6076B
:104990009234E0C0A1C3E73F56B90E07EB35B1C072
:1049A00038C3EC3F09BA46063F3788C0CFC2F13F53
:1049B000BFBA7E058E3864C066C2F53F77BBB504CA
:1049C000D93945C0FEC1F83F32BCED031E3B2CC0B7
:1049D00097C1FB3FF0BC24035F3C19C030C1FD3FD1
:1049E000B0BD5B029A3D0BC0CAC0FF3F73BE9201CF
:1049F000D03E03C065C0004038BFC90040EA010393
:104A00009B0703D009E008C9121F08C0042AFAD284
:104A100003E011F8013B00F8013B521EF9D2704748
:104A2000F0B480EA0102D40F4200B2EB410F02D28F
:104A30000246084611464A0042D0C30DDDB2C1F31A
:104A4000C752AD1A202D35DAC1F3160141F4000228
:104A500004B15242C5F1200602FA06F12A4110447F
:104A6000B3EBD05F23D0C4B1012DA0EBC35009DC60
:104A7000F0BC4FF0004202EAC352DBB200F5000086
:104A800000F032B9400000F1807000EBC350A0F19B
:104A9000807040EAD170490009E0490841EAC071DC
:104AA000A0EBC35000F50000400800EBC350F0BC81
:104AB00000F011B96142012202EB4101001BF6E74F
:104AC000F0BC704781F00041AAE780F00040A7E702
:104AD00080EA010210B502F00043400022D04A00F3
:104AE0001FD0010E01EB1261C0F35600C2F3560253
:104AF00040F4000042F40002A0FB022000047F39D1
:104B0000140400D0401C50EA124001D44000491E59
:104B1000C2B20C0604EBD010401C4008802A02D020
:104B200003E0002010BD20F00100002900DA002081
:104B3000184310BD30B480EA010202F0004530F0A5
:104B4000004221F0004013D090B1C30DD40DC2F348
:104B50001601C0F31600E41A41F4000140F400020B
:104B60007D34914201D3641C00E04900002C02DA3C
:104B700030BC002070474FF400000023914201D365
:104B8000891A034340084FEA4101F7D151B19142DC
:104B900002D14FF0004105E002D24FF0010101E0E7
:104BA0006FF0010103EBC450284430BC00F093B80F
:104BB000C10F80EAE0700844CA079623002100F084
:104BC00093B820F00040C10DC0F3160040F400007F
:104BD0007F2901DA00207047962903DCC1F1960194
:104BE000C840704796398840704700F0004230F066
:104BF00000400AD0C10D01F56071C0F3160042EA11
:104C00000151C20840071143704700200146704718
:104C100001F0004330B421F0004150EA010206D017
:104C20000A0DA2F56072C1F31301002A02DC30BC48
:104C300000207047440F44EAC104C100E01830BCB2
:104C400000EBC25000F047B830B50B4601460020DB
:104C50002022012409E021FA02F59D4205D303FA3E
:104C600002F5491B04FA02F52844151EA2F10102BF
:104C7000F1DC30BD2DE9F05F0546002092469B46F1
:104C800088460646814640241BE028464146474662
:104C9000224600F082FA53465A46C01A914110D378
:104CA00011461846224600F069FA2D1A67EB0108F2
:104CB0004F4622460120002100F060FA17EB000960
:104CC0004E41201EA4F10104DFDC484631462A464D
:104CD0004346BDE8F09F0029A8BF7047401C49002B
:104CE00008BF20F00100704710B4B0FA80FC00FA51
:104CF0000CF050EA010404BF10BC704749B1CCF17C
:104D0000200421FA04F411FA0CF118BF0121214307
:104D10000843A3EB0C01CB1D4FEA00614FEA1020C2
:104D200042BF002010BC704700EBC3501044002964
:104D3000A4BF10BC7047401C490008BF20F0010010
:104D400010BC70472DE9FE4F804681EA0300C00F7A
:104D50000C46009021F0004123F00045B8EB020022
:104D6000A94105D24046214690461C460B460246C4
:104D700023F00040104347D0270DC7F30A00C3F3C8
:104D80000A510290401A019040286BDAC3F31300D5
:104D900040F4801B0098924620B10023D2EB030A16
:104DA00063EB0B0B01985946C0F14002504600F0EE
:104DB000E5F906460D4650465946019A00F0FDF9C0
:104DC00010EB08006141002487EA115284EAE7737E
:104DD0001A4340D0009A62B3019A012A4FEA07525F
:104DE00015DC001B61EB02014FF0004202EA0752A2
:104DF000CDE90042001C41F5801132462B4600F0FF
:104E0000FDF903B0BDE8F08F40462146F9E7001BED
:104E100061EB0201001C41F5801300185B41201872
:104E2000A2F5001747EB030140EAD570B6196D41B2
:104E300011E06D084FEA360645EAC0754FEA0752A1
:104E4000001B61EB0201001C41F5801149084FEA8B
:104E500030000019514132462B4603B0BDE8F04FF7
:104E600000F0BDB90098012240000023D0EB0202FF
:104E700063EBE073009821464FEAE074B8EB000062
:104E800061EB0401E9E783F000435BE781F0004157
:104E900058E72DE9FE4F81EA030404F0004421F0B5
:104EA000004100944FF0000B23F0004350EA01044E
:104EB0005ED052EA03045BD0C3F30A54C1F30A552F
:104EC0002C44A4F2F3340194A0FB0254C1F3130167
:104ED00041F48011C3F3130343F4801301FB024434
:104EE00000FB034E840A970A44EA815447EA835739
:104EF000A4FB076802958D0A05FB07854FEA932CF2
:104F000004FB0C542705029D4FEA065847EA163762
:104F1000B5EB08056EEB070C870E920E47EA81177A
:104F200042EA8312A7FB0201B6EB0B0164EB00041B
:104F30002B0D43EA0C335E1844EB1C50DA46514605
:104F4000E7FB0201C5F313044FEA0B3343EA1453A2
:104F50004FEA0432019C43EA0603A4F10C040294D4
:104F6000009CCDE900B400F049F903B0BDE8F08F32
:104F700000200146F9E72DE9F04D81EA030404F031
:104F8000004B21F0004514464FF0000A23F0004189
:104F900050EA050220D054EA01021DD0C5F30A5799
:104FA0000246C5F31303C1F31300C1F30A5640F4DC
:104FB000801543F48013A7EB0608101BD64608F2B1
:104FC000FD3873EB050002D308F1010801E09218E7
:104FD0005B41B8F1000F03DA00200146BDE8F08D17
:104FE00000204FF48011064684460EE0171B73EB39
:104FF000050705D3121B63EB050306434CEA010CBE
:1050000049084FEA300092185B4150EA0107EDD1A0
:1050100052EA030012D082EA040083EA0501084341
:1050200005D0101BAB4106D20122002306E000226E
:105030004FF0004302E06FF0010253101AEB06003C
:105040004CEB085110EB0A0041EB0B01BDE8F04DB1
:1050500000F0C5B82DE9F04D00231A461B1A8A410D
:1050600003DB00200146BDE8F08DC1F30A52C1F315
:10507000130141F480154FF0000BD10702D1001845
:105080006D41521E0027044640F2FF11384601EBE5
:10509000620A3E468046024600204FF4801100F02E
:1050A0007CF8C2197141BB1846EB0100B4EB030C4C
:1050B00075EB000C04D3E41A65EB000517460E46A9
:1050C000241908F101006D4180463428E3DDF91907
:1050D00046EB0600091BA84103D24FF0FF321346EE
:1050E00001E0002213461BEB070046EB0A51BDE826
:1050F000F04D00F074B8C1F30A52C1F3130140F24D
:10510000FF3341F480119A4202DA002001467047D1
:1051100040F233439A42A2F2334202DC524200F0A0
:105120003CB800F02BB8000030B5041E71F100044B
:1051300004DB4FF00044404264EB0101141E73F1A4
:10514000000405DB1C464FF00043524263EB0403AE
:10515000994208BF904230BD064C074D06E0E0681A
:1051600040F0010394E8070098471034AC42F6D3AE
:10517000FAF7E2FFFC6E00081C6F0008202A04DB2F
:10518000203A00FA02F1002070479140C2F120035A
:1051900020FA03F3194390407047202A04DB203A99
:1051A00021FA02F00021704721FA02F3D040C2F147
:1051B00020029140084319467047202A06DBCB178E
:1051C000203A41FA02F043EAE07306E041FA02F3C2
:1051D000D040C2F12002914008431946704710B5F3
:1051E000141E73F1000408DA401C41F1000192180A
:1051F0005B411A4301D120F0010010BD2DE9F04DB3
:1052000092469B4611B1B1FA81F202E0B0FA80F207
:1052100020329046FFF7B2FF04460F4640EA0A00EC
:1052200041EA0B0153465A46084313D0114653EA4C
:10523000010019D0C8F140025046FFF7AEFF054605
:105240000E46504659464246FFF798FF084305D0A0
:10525000012004E020463946BDE8F08D00200543DA
:1052600046EAE0762C4337430A986305E40AA0EB4C
:1052700008000022FD0A44EA47540A3002D5002003
:105280000146E9E7010510196941DDE90845001902
:105290006941BDE8F04DA2E770B58C1810F8015BCC
:1052A00015F0070301D110F8013B2A1106D110F8BF
:1052B000012B03E010F8016B01F8016B5B1EF9D1C3
:1052C0002B0705D40023521E0DD401F8013BFAE749
:1052D00010F8013BCB1A921C03E013F8015B01F8B4
:1052E000015B521EF9D5A142D8D3002070BD000049
:1052F0000FB4054B10B503A9044A029800F0F4F866
:1053000010BC5DF814FB00004B2C0008A403002027
:105310000FB4084B10B504A902AA039800F0E4F8F2
:10532000044602A9002000F076FC204610BC5DF87F
:1053300014FB0000175C000802E008C8121F08C137
:10534000002AFAD170477047002001E001C1121F06
:10535000002AFBD170470000014908607047000037
:10536000A80300202DE9FF5F82B00021DDE90430B1
:10537000020DDDF840B0034318D044F61050A2F2FD
:10538000FF3242431514119801281FD0A5EB0B00E2
:10539000401C5FEA000A4FF000064E4FDFF83891DC
:1053A000B046504615D5CAF1000413E01198012407
:1053B0004AA3012801D16FEA0B010298119AC0E9B2
:1053C0000031C0E9024206B0BDE8F09FCBF1000019
:1053D000DFE704460021404A491842EB0450CDE97A
:1053E000001012E0E00707D032463B4640464946EF
:1053F000FFF74FFD8046894632463B461046194628
:10540000FFF747FD06460F466410002CEAD1DDE9A0
:105410000401DDE90023BAF1000F06DAFFF739FDD8
:1054200042464B46FFF735FD05E0FFF7A4FD424637
:105430004B46FFF7A0FD04460E460022284BFFF71F
:1054400073FE03D84FF0FF30014607E00022254BE2
:1054500020463146FFF776FCFFF74DFE102409E0A9
:10546000002C0ADB0A220023FFF704FC039B3032E6
:105470001A55641E50EA0102F2D1641C039AC4F169
:1054800011031444119A012A03D0012208430DD1BB
:105490000AE0084304D000204FF0110B119072E78E
:1054A000A3EB0B056D1E0DE05B4504DD4FF0000224
:1054B00005F1010504E003DA4FF00002A5F1010552
:1054C000002AECD002981199C0E90231C0E90045E8
:1054D00079E70000000014400000F03F30000000B9
:1054E0000000F0430000E03F2DE9FF4F95B09B46E0
:1054F0008946064600250FE2252877D10024274655
:10550000F84A0121059400E0044316F8013F203BCE
:1055100001FA03F01042F7D130782A2811D06FF049
:105520002F033078A0F13002092A16D8059A44F0EA
:10553000020402EB820203EB42021044761C059047
:10554000EFE759F8042B0592002A03DA504244F49D
:105550000054059044F00204761C30782E2816D1B1
:1055600016F8010F44F004042A280DD06FF02F0222
:105570003078A0F13003092B09D807EB870302EB41
:105580004303C718761CF3E759F8047B761C307880
:105590006C280FD006DC4C2817D068280DD06A285C
:1055A00014D104E0742810D07A280FD10DE044F40F
:1055B00000140AE044F4801401E044F440147278CA
:1055C000824202D104F58014761C761C307866285D
:1055D0000BD013DC582877D009DC002875D045287B
:1055E000F6D04628F4D047281AD19DE118E0632868
:1055F00035D0642879D0652812D195E1702873D010
:1056000008DC6728F1D069286FD06E280DD06F288C
:1056100006D1B5E073282CD0752875D0782874D0C1
:105620005A46179990476D1C75E1C4F30250022841
:1056300009D003280DD0D9F8001004280DD00D6032
:1056400009F1040967E1D9F80010EA17C1E900522D
:10565000F6E7D9F800100D80F2E70D70F0E719F8C1
:10566000041B8DF8001000208DF80100EA4601208F
:1056700003E059F804AB4FF0FF3061074FF0000131
:1056800002D40DE008F101018846B9420FDA8045E5
:10569000F8DB1AF808100029F4D108E008F101013C
:1056A00088468142FADB1AF808100029F6D10598DD
:1056B0005B46A0EB080721463846179A00F094FA9B
:1056C000284400EB080507E04DE029E10DE01AF859
:1056D000010B5A4617999047B8F10108F7D25B467B
:1056E00021463846179A13E142E00A220092C4F399
:1056F00002524FF0000A022A08D059F804CB032ABC
:105700004FEAEC710AD00DE029E02AE009F1070127
:1057100021F00702F2E802C1914609E00FFA8CFC81
:105720004FEAEC71042A03D14FFA8CFC4FEAEC717A
:10573000002907DA0A460021DCF1000C61EB0201C6
:105740002D2202E0220504D52B228DF8042001220F
:1057500003E0E20701D02022F7E7904659E00A2152
:1057600002E010220DE010214FF0000A00910BE042
:1057700010224FF0000A44F004040827009203E0CE
:1057800008224FF0000A0092C4F30252022A05D008
:1057900059F804CB0021032A08D009E009F10701D8
:1057A00021F00702F2E802C1914605E01FFA8CFCE5
:1057B000042A01D10CF0FF0C4FF00008220728D575
:1057C000702806D0009B83F0100353EA0A0305D02B
:1057D0000EE040228DF80420012208E05CEA01027C
:1057E00006D030228DF804208DF805000222904664
:1057F000009B83F0080353EA0A030AD15CEA010222
:1058000001D1620705D530228DF804204FF0010840
:105810007F1E582804D034A003900EA802900DE0FB
:1058200036A0F9E753466046009AFFF723FA84460C
:105830000398825C0298401E029002705CEA0100AC
:10584000F0D1029806A9081A00F1200A600702D5D3
:1058500024F4803400E00127574502DDA7EB0A005D
:1058600000E0002000EB0A01009005984144401A36
:105870000590E00306D45B462146179A059800F090
:10588000B3F90544002706E001A85A46C05D179900
:1058900090476D1C7F1C4745F6DBE0030CD55B464B
:1058A0002146179A059800F09FF9054404E030203E
:1058B0005A46179990476D1C0099481E0090002980
:1058C000F5DC08E0029802995A460078491C0291DA
:1058D000179990476D1CBAF10001AAF1010AF1DC99
:1058E00065E10000092801003031323334353637A4
:1058F000383961626364656600000000303132331C
:1059000034353637383941424344454600000000BB
:1059100000F058F90544761C307800287FF4ECAD8F
:1059200019B02846BDE8F08F620700D4062709F1B8
:10593000070222F0070CFCE80223E14603F00048CE
:105940005FEA080C02D00FF2702C0DE05FEA045CF5
:1059500002D50FF2682C07E05FEAC47C02D00FF298
:10596000602C01E0AFF2700C4FF0FF3823F00043E1
:10597000CDF850C065280CD006DC452809D0462853
:105980001DD047283DD13DE0662818D067287ED13C
:1059900038E00021112F01DB112000E0781CCDE957
:1059A000000106A90EA8FFF7DDFCDDE90F010E9A44
:1059B00003910021009207F1010A04914DE04FF09C
:1059C00000400097CDE9011006A90EA8FFF7CAFC18
:1059D000DDE90F0203920E9B11990022DDF80CA065
:1059E0000093049211B9791C00EB010AB7EB0A008D
:1059F00004D4C0F1FF3007F1010A0490AAEB0700BC
:105A0000019044E0012F00DA01270021112F01DD70
:105A1000112000E03846CDE9000106A90EA8FFF7E5
:105A2000A1FCDDE90F010E9A03910021049100927F
:105A3000BA4621070CD40399514500DA8A46BAF1D7
:105A4000010F05DD009AAAF10101515C302908D04F
:105A5000B84202DA10F1040F06DA0121CDE9011093
:105A600015E0AAF10101E9E7002805DC04990144E9
:105A70000491AAEB000102E0411C514500DD8A4679
:105A80000499401A401C01904FF0004002902007FA
:105A900004D40198504501DBCDF8048000208DF836
:105AA0004F0002980DF14F07B0F1004F25D02B2089
:105AB0000E9002984FF0020800280CDA4042029043
:105AC0002D200E9007E00A210298FFF7BDF8303133
:105AD000029007F8011DB8F10001A8F10108F2DCFD
